{
  "contractName": "MyNFT",
  "abi": [
    {
      "inputs": [],
      "stateMutability": "nonpayable",
      "type": "constructor"
    },
    {
      "anonymous": false,
      "inputs": [
        {
          "indexed": true,
          "internalType": "address",
          "name": "owner",
          "type": "address"
        },
        {
          "indexed": true,
          "internalType": "address",
          "name": "approved",
          "type": "address"
        },
        {
          "indexed": true,
          "internalType": "uint256",
          "name": "tokenId",
          "type": "uint256"
        }
      ],
      "name": "Approval",
      "type": "event"
    },
    {
      "anonymous": false,
      "inputs": [
        {
          "indexed": true,
          "internalType": "address",
          "name": "owner",
          "type": "address"
        },
        {
          "indexed": true,
          "internalType": "address",
          "name": "operator",
          "type": "address"
        },
        {
          "indexed": false,
          "internalType": "bool",
          "name": "approved",
          "type": "bool"
        }
      ],
      "name": "ApprovalForAll",
      "type": "event"
    },
    {
      "anonymous": false,
      "inputs": [
        {
          "indexed": false,
          "internalType": "uint256",
          "name": "_fromTokenId",
          "type": "uint256"
        },
        {
          "indexed": false,
          "internalType": "uint256",
          "name": "_toTokenId",
          "type": "uint256"
        }
      ],
      "name": "BatchMetadataUpdate",
      "type": "event"
    },
    {
      "anonymous": false,
      "inputs": [
        {
          "indexed": false,
          "internalType": "uint256",
          "name": "_tokenId",
          "type": "uint256"
        }
      ],
      "name": "MetadataUpdate",
      "type": "event"
    },
    {
      "anonymous": false,
      "inputs": [
        {
          "indexed": true,
          "internalType": "address",
          "name": "previousOwner",
          "type": "address"
        },
        {
          "indexed": true,
          "internalType": "address",
          "name": "newOwner",
          "type": "address"
        }
      ],
      "name": "OwnershipTransferred",
      "type": "event"
    },
    {
      "anonymous": false,
      "inputs": [
        {
          "indexed": true,
          "internalType": "address",
          "name": "from",
          "type": "address"
        },
        {
          "indexed": true,
          "internalType": "address",
          "name": "to",
          "type": "address"
        },
        {
          "indexed": true,
          "internalType": "uint256",
          "name": "tokenId",
          "type": "uint256"
        }
      ],
      "name": "Transfer",
      "type": "event"
    },
    {
      "anonymous": false,
      "inputs": [
        {
          "indexed": true,
          "internalType": "address",
          "name": "user",
          "type": "address"
        },
        {
          "indexed": false,
          "internalType": "uint256",
          "name": "rewardAmount",
          "type": "uint256"
        }
      ],
      "name": "UserRewarded",
      "type": "event"
    },
    {
      "inputs": [
        {
          "internalType": "address",
          "name": "to",
          "type": "address"
        },
        {
          "internalType": "uint256",
          "name": "tokenId",
          "type": "uint256"
        }
      ],
      "name": "approve",
      "outputs": [],
      "stateMutability": "nonpayable",
      "type": "function"
    },
    {
      "inputs": [
        {
          "internalType": "address",
          "name": "owner",
          "type": "address"
        }
      ],
      "name": "balanceOf",
      "outputs": [
        {
          "internalType": "uint256",
          "name": "",
          "type": "uint256"
        }
      ],
      "stateMutability": "view",
      "type": "function",
      "constant": true
    },
    {
      "inputs": [
        {
          "internalType": "uint256",
          "name": "tokenId",
          "type": "uint256"
        }
      ],
      "name": "getApproved",
      "outputs": [
        {
          "internalType": "address",
          "name": "",
          "type": "address"
        }
      ],
      "stateMutability": "view",
      "type": "function",
      "constant": true
    },
    {
      "inputs": [
        {
          "internalType": "address",
          "name": "owner",
          "type": "address"
        },
        {
          "internalType": "address",
          "name": "operator",
          "type": "address"
        }
      ],
      "name": "isApprovedForAll",
      "outputs": [
        {
          "internalType": "bool",
          "name": "",
          "type": "bool"
        }
      ],
      "stateMutability": "view",
      "type": "function",
      "constant": true
    },
    {
      "inputs": [],
      "name": "name",
      "outputs": [
        {
          "internalType": "string",
          "name": "",
          "type": "string"
        }
      ],
      "stateMutability": "view",
      "type": "function",
      "constant": true
    },
    {
      "inputs": [],
      "name": "owner",
      "outputs": [
        {
          "internalType": "address",
          "name": "",
          "type": "address"
        }
      ],
      "stateMutability": "view",
      "type": "function",
      "constant": true
    },
    {
      "inputs": [
        {
          "internalType": "uint256",
          "name": "tokenId",
          "type": "uint256"
        }
      ],
      "name": "ownerOf",
      "outputs": [
        {
          "internalType": "address",
          "name": "",
          "type": "address"
        }
      ],
      "stateMutability": "view",
      "type": "function",
      "constant": true
    },
    {
      "inputs": [],
      "name": "renounceOwnership",
      "outputs": [],
      "stateMutability": "nonpayable",
      "type": "function"
    },
    {
      "inputs": [
        {
          "internalType": "address",
          "name": "from",
          "type": "address"
        },
        {
          "internalType": "address",
          "name": "to",
          "type": "address"
        },
        {
          "internalType": "uint256",
          "name": "tokenId",
          "type": "uint256"
        }
      ],
      "name": "safeTransferFrom",
      "outputs": [],
      "stateMutability": "nonpayable",
      "type": "function"
    },
    {
      "inputs": [
        {
          "internalType": "address",
          "name": "from",
          "type": "address"
        },
        {
          "internalType": "address",
          "name": "to",
          "type": "address"
        },
        {
          "internalType": "uint256",
          "name": "tokenId",
          "type": "uint256"
        },
        {
          "internalType": "bytes",
          "name": "data",
          "type": "bytes"
        }
      ],
      "name": "safeTransferFrom",
      "outputs": [],
      "stateMutability": "nonpayable",
      "type": "function"
    },
    {
      "inputs": [
        {
          "internalType": "address",
          "name": "operator",
          "type": "address"
        },
        {
          "internalType": "bool",
          "name": "approved",
          "type": "bool"
        }
      ],
      "name": "setApprovalForAll",
      "outputs": [],
      "stateMutability": "nonpayable",
      "type": "function"
    },
    {
      "inputs": [
        {
          "internalType": "bytes4",
          "name": "interfaceId",
          "type": "bytes4"
        }
      ],
      "name": "supportsInterface",
      "outputs": [
        {
          "internalType": "bool",
          "name": "",
          "type": "bool"
        }
      ],
      "stateMutability": "view",
      "type": "function",
      "constant": true
    },
    {
      "inputs": [],
      "name": "symbol",
      "outputs": [
        {
          "internalType": "string",
          "name": "",
          "type": "string"
        }
      ],
      "stateMutability": "view",
      "type": "function",
      "constant": true
    },
    {
      "inputs": [
        {
          "internalType": "uint256",
          "name": "tokenId",
          "type": "uint256"
        }
      ],
      "name": "tokenURI",
      "outputs": [
        {
          "internalType": "string",
          "name": "",
          "type": "string"
        }
      ],
      "stateMutability": "view",
      "type": "function",
      "constant": true
    },
    {
      "inputs": [
        {
          "internalType": "address",
          "name": "from",
          "type": "address"
        },
        {
          "internalType": "address",
          "name": "to",
          "type": "address"
        },
        {
          "internalType": "uint256",
          "name": "tokenId",
          "type": "uint256"
        }
      ],
      "name": "transferFrom",
      "outputs": [],
      "stateMutability": "nonpayable",
      "type": "function"
    },
    {
      "inputs": [
        {
          "internalType": "address",
          "name": "newOwner",
          "type": "address"
        }
      ],
      "name": "transferOwnership",
      "outputs": [],
      "stateMutability": "nonpayable",
      "type": "function"
    },
    {
      "inputs": [
        {
          "internalType": "address",
          "name": "recipient",
          "type": "address"
        },
        {
          "internalType": "string",
          "name": "tokenURI",
          "type": "string"
        }
      ],
      "name": "mintNFT",
      "outputs": [
        {
          "internalType": "uint256",
          "name": "",
          "type": "uint256"
        }
      ],
      "stateMutability": "nonpayable",
      "type": "function"
    },
    {
      "inputs": [],
      "name": "depositETH",
      "outputs": [],
      "stateMutability": "payable",
      "type": "function",
      "payable": true
    },
    {
      "inputs": [],
      "name": "withdrawETH",
      "outputs": [],
      "stateMutability": "nonpayable",
      "type": "function"
    },
    {
      "inputs": [
        {
          "internalType": "address",
          "name": "user",
          "type": "address"
        }
      ],
      "name": "totalRewards",
      "outputs": [
        {
          "internalType": "uint256",
          "name": "",
          "type": "uint256"
        }
      ],
      "stateMutability": "view",
      "type": "function",
      "constant": true
    },
    {
      "inputs": [
        {
          "internalType": "address",
          "name": "user",
          "type": "address"
        }
      ],
      "name": "getMintedTokens",
      "outputs": [
        {
          "internalType": "uint256[]",
          "name": "",
          "type": "uint256[]"
        }
      ],
      "stateMutability": "view",
      "type": "function",
      "constant": true
    },
    {
      "inputs": [
        {
          "internalType": "string",
          "name": "tokenURI",
          "type": "string"
        }
      ],
      "name": "checkTokenExists",
      "outputs": [
        {
          "internalType": "bool",
          "name": "",
          "type": "bool"
        }
      ],
      "stateMutability": "view",
      "type": "function",
      "constant": true
    }
  ],
  "bytecode": "0x60806040523480156200001157600080fd5b506040518060400160405280600581526020017f4d794e46540000000000000000000000000000000000000000000000000000008152506040518060400160405280600381526020017f4e4654000000000000000000000000000000000000000000000000000000000081525081600090816200008f919062000412565b508060019081620000a1919062000412565b505050620000c4620000b8620000ca60201b60201c565b620000d260201b60201c565b620004f9565b600033905090565b6000600760009054906101000a900473ffffffffffffffffffffffffffffffffffffffff16905081600760006101000a81548173ffffffffffffffffffffffffffffffffffffffff021916908373ffffffffffffffffffffffffffffffffffffffff1602179055508173ffffffffffffffffffffffffffffffffffffffff168173ffffffffffffffffffffffffffffffffffffffff167f8be0079c531659141344cd1fd0a4f28419497f9722a3daafe3b4186f6b6457e060405160405180910390a35050565b600081519050919050565b7f4e487b7100000000000000000000000000000000000000000000000000000000600052604160045260246000fd5b7f4e487b7100000000000000000000000000000000000000000000000000000000600052602260045260246000fd5b600060028204905060018216806200021a57607f821691505b60208210810362000230576200022f620001d2565b5b50919050565b60008190508160005260206000209050919050565b60006020601f8301049050919050565b600082821b905092915050565b6000600883026200029a7fffffffffffffffffffffffffffffffffffffffffffffffffffffffffffffffff826200025b565b620002a686836200025b565b95508019841693508086168417925050509392505050565b6000819050919050565b6000819050919050565b6000620002f3620002ed620002e784620002be565b620002c8565b620002be565b9050919050565b6000819050919050565b6200030f83620002d2565b620003276200031e82620002fa565b84845462000268565b825550505050565b600090565b6200033e6200032f565b6200034b81848462000304565b505050565b5b8181101562000373576200036760008262000334565b60018101905062000351565b5050565b601f821115620003c2576200038c8162000236565b62000397846200024b565b81016020851015620003a7578190505b620003bf620003b6856200024b565b83018262000350565b50505b505050565b600082821c905092915050565b6000620003e760001984600802620003c7565b1980831691505092915050565b6000620004028383620003d4565b9150826002028217905092915050565b6200041d8262000198565b67ffffffffffffffff811115620004395762000438620001a3565b5b62000445825462000201565b6200045282828562000377565b600060209050601f8311600181146200048a576000841562000475578287015190505b620004818582620003f4565b865550620004f1565b601f1984166200049a8662000236565b60005b82811015620004c4578489015182556001820191506020850194506020810190506200049d565b86831015620004e45784890151620004e0601f891682620003d4565b8355505b6001600288020188555050505b505050505050565b61378080620005096000396000f3fe6080604052600436106101355760003560e01c80638da5cb5b116100ab578063c87b56dd1161006f578063c87b56dd1461044a578063e086e5ec14610487578063e985e9c51461049e578063eacabe14146104db578063f2fde38b14610518578063f6326fb31461054157610135565b80638da5cb5b1461036557806395d89b4114610390578063a22cb465146103bb578063ab7573dd146103e4578063b88d4fde1461042157610135565b806323b872dd116100fd57806323b872dd1461024557806342842e0e1461026e578063434a49a1146102975780636352211e146102d457806370a0823114610311578063715018a61461034e57610135565b806301ffc9a71461013a57806304b49c3a1461017757806306fdde03146101b4578063081812fc146101df578063095ea7b31461021c575b600080fd5b34801561014657600080fd5b50610161600480360381019061015c9190612244565b61054b565b60405161016e919061228c565b60405180910390f35b34801561018357600080fd5b5061019e600480360381019061019991906123ed565b6105ac565b6040516101ab919061228c565b60405180910390f35b3480156101c057600080fd5b506101c96105e1565b6040516101d691906124b5565b60405180910390f35b3480156101eb57600080fd5b506102066004803603810190610201919061250d565b610673565b604051610213919061257b565b60405180910390f35b34801561022857600080fd5b50610243600480360381019061023e91906125c2565b6106b9565b005b34801561025157600080fd5b5061026c60048036038101906102679190612602565b6107d0565b005b34801561027a57600080fd5b5061029560048036038101906102909190612602565b610830565b005b3480156102a357600080fd5b506102be60048036038101906102b99190612655565b610850565b6040516102cb9190612740565b60405180910390f35b3480156102e057600080fd5b506102fb60048036038101906102f6919061250d565b6108e7565b604051610308919061257b565b60405180910390f35b34801561031d57600080fd5b5061033860048036038101906103339190612655565b61096d565b6040516103459190612771565b60405180910390f35b34801561035a57600080fd5b50610363610a24565b005b34801561037157600080fd5b5061037a610a38565b604051610387919061257b565b60405180910390f35b34801561039c57600080fd5b506103a5610a62565b6040516103b291906124b5565b60405180910390f35b3480156103c757600080fd5b506103e260048036038101906103dd91906127b8565b610af4565b005b3480156103f057600080fd5b5061040b60048036038101906104069190612655565b610b0a565b6040516104189190612771565b60405180910390f35b34801561042d57600080fd5b5061044860048036038101906104439190612899565b610b53565b005b34801561045657600080fd5b50610471600480360381019061046c919061250d565b610bb5565b60405161047e91906124b5565b60405180910390f35b34801561049357600080fd5b5061049c610cc7565b005b3480156104aa57600080fd5b506104c560048036038101906104c0919061291c565b610d25565b6040516104d2919061228c565b60405180910390f35b3480156104e757600080fd5b5061050260048036038101906104fd919061295c565b610db9565b60405161050f9190612771565b60405180910390f35b34801561052457600080fd5b5061053f600480360381019061053a9190612655565b610f03565b005b610549610f86565b005b6000634906490660e01b7bffffffffffffffffffffffffffffffffffffffffffffffffffffffff1916827bffffffffffffffffffffffffffffffffffffffffffffffffffffffff191614806105a557506105a482610f88565b5b9050919050565b6000600b826040516105be91906129f4565b908152602001604051809103902060009054906101000a900460ff169050919050565b6060600080546105f090612a3a565b80601f016020809104026020016040519081016040528092919081815260200182805461061c90612a3a565b80156106695780601f1061063e57610100808354040283529160200191610669565b820191906000526020600020905b81548152906001019060200180831161064c57829003601f168201915b5050505050905090565b600061067e8261106a565b6004600083815260200190815260200160002060009054906101000a900473ffffffffffffffffffffffffffffffffffffffff169050919050565b60006106c4826108e7565b90508073ffffffffffffffffffffffffffffffffffffffff168373ffffffffffffffffffffffffffffffffffffffff1603610734576040517f08c379a000000000000000000000000000000000000000000000000000000000815260040161072b90612add565b60405180910390fd5b8073ffffffffffffffffffffffffffffffffffffffff166107536110b5565b73ffffffffffffffffffffffffffffffffffffffff16148061078257506107818161077c6110b5565b610d25565b5b6107c1576040517f08c379a00000000000000000000000000000000000000000000000000000000081526004016107b890612b6f565b60405180910390fd5b6107cb83836110bd565b505050565b6107e16107db6110b5565b82611176565b610820576040517f08c379a000000000000000000000000000000000000000000000000000000000815260040161081790612c01565b60405180910390fd5b61082b83838361120b565b505050565b61084b83838360405180602001604052806000815250610b53565b505050565b6060600a60008373ffffffffffffffffffffffffffffffffffffffff1673ffffffffffffffffffffffffffffffffffffffff1681526020019081526020016000208054806020026020016040519081016040528092919081815260200182805480156108db57602002820191906000526020600020905b8154815260200190600101908083116108c7575b50505050509050919050565b6000806108f383611504565b9050600073ffffffffffffffffffffffffffffffffffffffff168173ffffffffffffffffffffffffffffffffffffffff1603610964576040517f08c379a000000000000000000000000000000000000000000000000000000000815260040161095b90612c6d565b60405180910390fd5b80915050919050565b60008073ffffffffffffffffffffffffffffffffffffffff168273ffffffffffffffffffffffffffffffffffffffff16036109dd576040517f08c379a00000000000000000000000000000000000000000000000000000000081526004016109d490612cff565b60405180910390fd5b600360008373ffffffffffffffffffffffffffffffffffffffff1673ffffffffffffffffffffffffffffffffffffffff168152602001908152602001600020549050919050565b610a2c611541565b610a3660006115bf565b565b6000600760009054906101000a900473ffffffffffffffffffffffffffffffffffffffff16905090565b606060018054610a7190612a3a565b80601f0160208091040260200160405190810160405280929190818152602001828054610a9d90612a3a565b8015610aea5780601f10610abf57610100808354040283529160200191610aea565b820191906000526020600020905b815481529060010190602001808311610acd57829003601f168201915b5050505050905090565b610b06610aff6110b5565b8383611685565b5050565b6000600960008373ffffffffffffffffffffffffffffffffffffffff1673ffffffffffffffffffffffffffffffffffffffff168152602001908152602001600020549050919050565b610b64610b5e6110b5565b83611176565b610ba3576040517f08c379a0000000000000000000000000000000000000000000000000000000008152600401610b9a90612c01565b60405180910390fd5b610baf848484846117f1565b50505050565b6060610bc08261106a565b6000600660008481526020019081526020016000208054610be090612a3a565b80601f0160208091040260200160405190810160405280929190818152602001828054610c0c90612a3a565b8015610c595780601f10610c2e57610100808354040283529160200191610c59565b820191906000526020600020905b815481529060010190602001808311610c3c57829003601f168201915b505050505090506000610c6a61184d565b90506000815103610c7f578192505050610cc2565b600082511115610cb4578082604051602001610c9c929190612d1f565b60405160208183030381529060405292505050610cc2565b610cbd84611864565b925050505b919050565b610ccf611541565b6000479050610cdc610a38565b73ffffffffffffffffffffffffffffffffffffffff166108fc829081150290604051600060405180830381858888f19350505050158015610d21573d6000803e3d6000fd5b5050565b6000600560008473ffffffffffffffffffffffffffffffffffffffff1673ffffffffffffffffffffffffffffffffffffffff16815260200190815260200160002060008373ffffffffffffffffffffffffffffffffffffffff1673ffffffffffffffffffffffffffffffffffffffff16815260200190815260200160002060009054906101000a900460ff16905092915050565b6000600b82604051610dcb91906129f4565b908152602001604051809103902060009054906101000a900460ff1615610e27576040517f08c379a0000000000000000000000000000000000000000000000000000000008152600401610e1e90612d8f565b60405180910390fd5b610e3160086118cc565b6000610e3d60086118e2565b9050610e4984826118f0565b610e538184611b0d565b610e5c84611bb1565b600a60008573ffffffffffffffffffffffffffffffffffffffff1673ffffffffffffffffffffffffffffffffffffffff1681526020019081526020016000208190806001815401808255809150506001900390600052602060002001600090919091909150556001600b84604051610ed491906129f4565b908152602001604051809103902060006101000a81548160ff0219169083151502179055508091505092915050565b610f0b611541565b600073ffffffffffffffffffffffffffffffffffffffff168173ffffffffffffffffffffffffffffffffffffffff1603610f7a576040517f08c379a0000000000000000000000000000000000000000000000000000000008152600401610f7190612e21565b60405180910390fd5b610f83816115bf565b50565b565b60007f80ac58cd000000000000000000000000000000000000000000000000000000007bffffffffffffffffffffffffffffffffffffffffffffffffffffffff1916827bffffffffffffffffffffffffffffffffffffffffffffffffffffffff1916148061105357507f5b5e139f000000000000000000000000000000000000000000000000000000007bffffffffffffffffffffffffffffffffffffffffffffffffffffffff1916827bffffffffffffffffffffffffffffffffffffffffffffffffffffffff1916145b80611063575061106282611d56565b5b9050919050565b61107381611dc0565b6110b2576040517f08c379a00000000000000000000000000000000000000000000000000000000081526004016110a990612c6d565b60405180910390fd5b50565b600033905090565b816004600083815260200190815260200160002060006101000a81548173ffffffffffffffffffffffffffffffffffffffff021916908373ffffffffffffffffffffffffffffffffffffffff160217905550808273ffffffffffffffffffffffffffffffffffffffff16611130836108e7565b73ffffffffffffffffffffffffffffffffffffffff167f8c5be1e5ebec7d5bd14f71427d1e84f3dd0314c0f7b2291e5b200ac8c7c3b92560405160405180910390a45050565b600080611182836108e7565b90508073ffffffffffffffffffffffffffffffffffffffff168473ffffffffffffffffffffffffffffffffffffffff1614806111c457506111c38185610d25565b5b8061120257508373ffffffffffffffffffffffffffffffffffffffff166111ea84610673565b73ffffffffffffffffffffffffffffffffffffffff16145b91505092915050565b8273ffffffffffffffffffffffffffffffffffffffff1661122b826108e7565b73ffffffffffffffffffffffffffffffffffffffff1614611281576040517f08c379a000000000000000000000000000000000000000000000000000000000815260040161127890612eb3565b60405180910390fd5b600073ffffffffffffffffffffffffffffffffffffffff168273ffffffffffffffffffffffffffffffffffffffff16036112f0576040517f08c379a00000000000000000000000000000000000000000000000000000000081526004016112e790612f45565b60405180910390fd5b6112fd8383836001611e01565b8273ffffffffffffffffffffffffffffffffffffffff1661131d826108e7565b73ffffffffffffffffffffffffffffffffffffffff1614611373576040517f08c379a000000000000000000000000000000000000000000000000000000000815260040161136a90612eb3565b60405180910390fd5b6004600082815260200190815260200160002060006101000a81549073ffffffffffffffffffffffffffffffffffffffff02191690556001600360008573ffffffffffffffffffffffffffffffffffffffff1673ffffffffffffffffffffffffffffffffffffffff168152602001908152602001600020600082825403925050819055506001600360008473ffffffffffffffffffffffffffffffffffffffff1673ffffffffffffffffffffffffffffffffffffffff16815260200190815260200160002060008282540192505081905550816002600083815260200190815260200160002060006101000a81548173ffffffffffffffffffffffffffffffffffffffff021916908373ffffffffffffffffffffffffffffffffffffffff160217905550808273ffffffffffffffffffffffffffffffffffffffff168473ffffffffffffffffffffffffffffffffffffffff167fddf252ad1be2c89b69c2b068fc378daa952ba7f163c4a11628f55a4df523b3ef60405160405180910390a46114ff8383836001611e07565b505050565b60006002600083815260200190815260200160002060009054906101000a900473ffffffffffffffffffffffffffffffffffffffff169050919050565b6115496110b5565b73ffffffffffffffffffffffffffffffffffffffff16611567610a38565b73ffffffffffffffffffffffffffffffffffffffff16146115bd576040517f08c379a00000000000000000000000000000000000000000000000000000000081526004016115b490612fb1565b60405180910390fd5b565b6000600760009054906101000a900473ffffffffffffffffffffffffffffffffffffffff16905081600760006101000a81548173ffffffffffffffffffffffffffffffffffffffff021916908373ffffffffffffffffffffffffffffffffffffffff1602179055508173ffffffffffffffffffffffffffffffffffffffff168173ffffffffffffffffffffffffffffffffffffffff167f8be0079c531659141344cd1fd0a4f28419497f9722a3daafe3b4186f6b6457e060405160405180910390a35050565b8173ffffffffffffffffffffffffffffffffffffffff168373ffffffffffffffffffffffffffffffffffffffff16036116f3576040517f08c379a00000000000000000000000000000000000000000000000000000000081526004016116ea9061301d565b60405180910390fd5b80600560008573ffffffffffffffffffffffffffffffffffffffff1673ffffffffffffffffffffffffffffffffffffffff16815260200190815260200160002060008473ffffffffffffffffffffffffffffffffffffffff1673ffffffffffffffffffffffffffffffffffffffff16815260200190815260200160002060006101000a81548160ff0219169083151502179055508173ffffffffffffffffffffffffffffffffffffffff168373ffffffffffffffffffffffffffffffffffffffff167f17307eab39ab6107e8899845ad3d59bd9653f200f220920489ca2b5937696c31836040516117e4919061228c565b60405180910390a3505050565b6117fc84848461120b565b61180884848484611e0d565b611847576040517f08c379a000000000000000000000000000000000000000000000000000000000815260040161183e906130af565b60405180910390fd5b50505050565b606060405180602001604052806000815250905090565b606061186f8261106a565b600061187961184d565b9050600081511161189957604051806020016040528060008152506118c4565b806118a384611f94565b6040516020016118b4929190612d1f565b6040516020818303038152906040525b915050919050565b6001816000016000828254019250508190555050565b600081600001549050919050565b600073ffffffffffffffffffffffffffffffffffffffff168273ffffffffffffffffffffffffffffffffffffffff160361195f576040517f08c379a00000000000000000000000000000000000000000000000000000000081526004016119569061311b565b60405180910390fd5b61196881611dc0565b156119a8576040517f08c379a000000000000000000000000000000000000000000000000000000000815260040161199f90613187565b60405180910390fd5b6119b6600083836001611e01565b6119bf81611dc0565b156119ff576040517f08c379a00000000000000000000000000000000000000000000000000000000081526004016119f690613187565b60405180910390fd5b6001600360008473ffffffffffffffffffffffffffffffffffffffff1673ffffffffffffffffffffffffffffffffffffffff16815260200190815260200160002060008282540192505081905550816002600083815260200190815260200160002060006101000a81548173ffffffffffffffffffffffffffffffffffffffff021916908373ffffffffffffffffffffffffffffffffffffffff160217905550808273ffffffffffffffffffffffffffffffffffffffff16600073ffffffffffffffffffffffffffffffffffffffff167fddf252ad1be2c89b69c2b068fc378daa952ba7f163c4a11628f55a4df523b3ef60405160405180910390a4611b09600083836001611e07565b5050565b611b1682611dc0565b611b55576040517f08c379a0000000000000000000000000000000000000000000000000000000008152600401611b4c90613219565b60405180910390fd5b80600660008481526020019081526020016000209081611b7591906133e5565b507ff8e1a15aba9398e019f0b49df1a4fde98ee17ae345cb5f6b5e2c27f5033e8ce782604051611ba59190612771565b60405180910390a15050565b6000670de0b6b3a7640000905080471015611c01576040517f08c379a0000000000000000000000000000000000000000000000000000000008152600401611bf890613503565b60405180910390fd5b80600960008473ffffffffffffffffffffffffffffffffffffffff1673ffffffffffffffffffffffffffffffffffffffff1681526020019081526020016000206000828254611c509190613552565b9250508190555060008273ffffffffffffffffffffffffffffffffffffffff1682604051611c7d906135b7565b60006040518083038185875af1925050503d8060008114611cba576040519150601f19603f3d011682016040523d82523d6000602084013e611cbf565b606091505b5050905080611d03576040517f08c379a0000000000000000000000000000000000000000000000000000000008152600401611cfa90613618565b60405180910390fd5b8273ffffffffffffffffffffffffffffffffffffffff167fe366ef68d2c0620e9e4c5074fd7ad0ce6739b65287f9c2d09b7d002da556879b83604051611d499190612771565b60405180910390a2505050565b60007f01ffc9a7000000000000000000000000000000000000000000000000000000007bffffffffffffffffffffffffffffffffffffffffffffffffffffffff1916827bffffffffffffffffffffffffffffffffffffffffffffffffffffffff1916149050919050565b60008073ffffffffffffffffffffffffffffffffffffffff16611de283611504565b73ffffffffffffffffffffffffffffffffffffffff1614159050919050565b50505050565b50505050565b6000611e2e8473ffffffffffffffffffffffffffffffffffffffff16612062565b15611f87578373ffffffffffffffffffffffffffffffffffffffff1663150b7a02611e576110b5565b8786866040518563ffffffff1660e01b8152600401611e79949392919061368d565b6020604051808303816000875af1925050508015611eb557506040513d601f19601f82011682018060405250810190611eb291906136ee565b60015b611f37573d8060008114611ee5576040519150601f19603f3d011682016040523d82523d6000602084013e611eea565b606091505b506000815103611f2f576040517f08c379a0000000000000000000000000000000000000000000000000000000008152600401611f26906130af565b60405180910390fd5b805181602001fd5b63150b7a0260e01b7bffffffffffffffffffffffffffffffffffffffffffffffffffffffff1916817bffffffffffffffffffffffffffffffffffffffffffffffffffffffff191614915050611f8c565b600190505b949350505050565b606060006001611fa384612085565b01905060008167ffffffffffffffff811115611fc257611fc16122c2565b5b6040519080825280601f01601f191660200182016040528015611ff45781602001600182028036833780820191505090505b509050600082602001820190505b600115612057578080600190039150507f3031323334353637383961626364656600000000000000000000000000000000600a86061a8153600a858161204b5761204a61371b565b5b04945060008503612002575b819350505050919050565b6000808273ffffffffffffffffffffffffffffffffffffffff163b119050919050565b600080600090507a184f03e93ff9f4daa797ed6e38ed64bf6a1f01000000000000000083106120e3577a184f03e93ff9f4daa797ed6e38ed64bf6a1f01000000000000000083816120d9576120d861371b565b5b0492506040810190505b6d04ee2d6d415b85acef81000000008310612120576d04ee2d6d415b85acef810000000083816121165761211561371b565b5b0492506020810190505b662386f26fc10000831061214f57662386f26fc1000083816121455761214461371b565b5b0492506010810190505b6305f5e1008310612178576305f5e100838161216e5761216d61371b565b5b0492506008810190505b612710831061219d5761271083816121935761219261371b565b5b0492506004810190505b606483106121c057606483816121b6576121b561371b565b5b0492506002810190505b600a83106121cf576001810190505b80915050919050565b6000604051905090565b600080fd5b600080fd5b60007fffffffff0000000000000000000000000000000000000000000000000000000082169050919050565b612221816121ec565b811461222c57600080fd5b50565b60008135905061223e81612218565b92915050565b60006020828403121561225a576122596121e2565b5b60006122688482850161222f565b91505092915050565b60008115159050919050565b61228681612271565b82525050565b60006020820190506122a1600083018461227d565b92915050565b600080fd5b600080fd5b6000601f19601f8301169050919050565b7f4e487b7100000000000000000000000000000000000000000000000000000000600052604160045260246000fd5b6122fa826122b1565b810181811067ffffffffffffffff82111715612319576123186122c2565b5b80604052505050565b600061232c6121d8565b905061233882826122f1565b919050565b600067ffffffffffffffff821115612358576123576122c2565b5b612361826122b1565b9050602081019050919050565b82818337600083830152505050565b600061239061238b8461233d565b612322565b9050828152602081018484840111156123ac576123ab6122ac565b5b6123b784828561236e565b509392505050565b600082601f8301126123d4576123d36122a7565b5b81356123e484826020860161237d565b91505092915050565b600060208284031215612403576124026121e2565b5b600082013567ffffffffffffffff811115612421576124206121e7565b5b61242d848285016123bf565b91505092915050565b600081519050919050565b600082825260208201905092915050565b60005b83811015612470578082015181840152602081019050612455565b60008484015250505050565b600061248782612436565b6124918185612441565b93506124a1818560208601612452565b6124aa816122b1565b840191505092915050565b600060208201905081810360008301526124cf818461247c565b905092915050565b6000819050919050565b6124ea816124d7565b81146124f557600080fd5b50565b600081359050612507816124e1565b92915050565b600060208284031215612523576125226121e2565b5b6000612531848285016124f8565b91505092915050565b600073ffffffffffffffffffffffffffffffffffffffff82169050919050565b60006125658261253a565b9050919050565b6125758161255a565b82525050565b6000602082019050612590600083018461256c565b92915050565b61259f8161255a565b81146125aa57600080fd5b50565b6000813590506125bc81612596565b92915050565b600080604083850312156125d9576125d86121e2565b5b60006125e7858286016125ad565b92505060206125f8858286016124f8565b9150509250929050565b60008060006060848603121561261b5761261a6121e2565b5b6000612629868287016125ad565b935050602061263a868287016125ad565b925050604061264b868287016124f8565b9150509250925092565b60006020828403121561266b5761266a6121e2565b5b6000612679848285016125ad565b91505092915050565b600081519050919050565b600082825260208201905092915050565b6000819050602082019050919050565b6126b7816124d7565b82525050565b60006126c983836126ae565b60208301905092915050565b6000602082019050919050565b60006126ed82612682565b6126f7818561268d565b93506127028361269e565b8060005b8381101561273357815161271a88826126bd565b9750612725836126d5565b925050600181019050612706565b5085935050505092915050565b6000602082019050818103600083015261275a81846126e2565b905092915050565b61276b816124d7565b82525050565b60006020820190506127866000830184612762565b92915050565b61279581612271565b81146127a057600080fd5b50565b6000813590506127b28161278c565b92915050565b600080604083850312156127cf576127ce6121e2565b5b60006127dd858286016125ad565b92505060206127ee858286016127a3565b9150509250929050565b600067ffffffffffffffff821115612813576128126122c2565b5b61281c826122b1565b9050602081019050919050565b600061283c612837846127f8565b612322565b905082815260208101848484011115612858576128576122ac565b5b61286384828561236e565b509392505050565b600082601f8301126128805761287f6122a7565b5b8135612890848260208601612829565b91505092915050565b600080600080608085870312156128b3576128b26121e2565b5b60006128c1878288016125ad565b94505060206128d2878288016125ad565b93505060406128e3878288016124f8565b925050606085013567ffffffffffffffff811115612904576129036121e7565b5b6129108782880161286b565b91505092959194509250565b60008060408385031215612933576129326121e2565b5b6000612941858286016125ad565b9250506020612952858286016125ad565b9150509250929050565b60008060408385031215612973576129726121e2565b5b6000612981858286016125ad565b925050602083013567ffffffffffffffff8111156129a2576129a16121e7565b5b6129ae858286016123bf565b9150509250929050565b600081905092915050565b60006129ce82612436565b6129d881856129b8565b93506129e8818560208601612452565b80840191505092915050565b6000612a0082846129c3565b915081905092915050565b7f4e487b7100000000000000000000000000000000000000000000000000000000600052602260045260246000fd5b60006002820490506001821680612a5257607f821691505b602082108103612a6557612a64612a0b565b5b50919050565b7f4552433732313a20617070726f76616c20746f2063757272656e74206f776e6560008201527f7200000000000000000000000000000000000000000000000000000000000000602082015250565b6000612ac7602183612441565b9150612ad282612a6b565b604082019050919050565b60006020820190508181036000830152612af681612aba565b9050919050565b7f4552433732313a20617070726f76652063616c6c6572206973206e6f7420746f60008201527f6b656e206f776e6572206f7220617070726f76656420666f7220616c6c000000602082015250565b6000612b59603d83612441565b9150612b6482612afd565b604082019050919050565b60006020820190508181036000830152612b8881612b4c565b9050919050565b7f4552433732313a2063616c6c6572206973206e6f7420746f6b656e206f776e6560008201527f72206f7220617070726f76656400000000000000000000000000000000000000602082015250565b6000612beb602d83612441565b9150612bf682612b8f565b604082019050919050565b60006020820190508181036000830152612c1a81612bde565b9050919050565b7f4552433732313a20696e76616c696420746f6b656e2049440000000000000000600082015250565b6000612c57601883612441565b9150612c6282612c21565b602082019050919050565b60006020820190508181036000830152612c8681612c4a565b9050919050565b7f4552433732313a2061646472657373207a65726f206973206e6f74206120766160008201527f6c6964206f776e65720000000000000000000000000000000000000000000000602082015250565b6000612ce9602983612441565b9150612cf482612c8d565b604082019050919050565b60006020820190508181036000830152612d1881612cdc565b9050919050565b6000612d2b82856129c3565b9150612d3782846129c3565b91508190509392505050565b7f546f6b656e20616c726561647920657869737473000000000000000000000000600082015250565b6000612d79601483612441565b9150612d8482612d43565b602082019050919050565b60006020820190508181036000830152612da881612d6c565b9050919050565b7f4f776e61626c653a206e6577206f776e657220697320746865207a65726f206160008201527f6464726573730000000000000000000000000000000000000000000000000000602082015250565b6000612e0b602683612441565b9150612e1682612daf565b604082019050919050565b60006020820190508181036000830152612e3a81612dfe565b9050919050565b7f4552433732313a207472616e736665722066726f6d20696e636f72726563742060008201527f6f776e6572000000000000000000000000000000000000000000000000000000602082015250565b6000612e9d602583612441565b9150612ea882612e41565b604082019050919050565b60006020820190508181036000830152612ecc81612e90565b9050919050565b7f4552433732313a207472616e7366657220746f20746865207a65726f2061646460008201527f7265737300000000000000000000000000000000000000000000000000000000602082015250565b6000612f2f602483612441565b9150612f3a82612ed3565b604082019050919050565b60006020820190508181036000830152612f5e81612f22565b9050919050565b7f4f776e61626c653a2063616c6c6572206973206e6f7420746865206f776e6572600082015250565b6000612f9b602083612441565b9150612fa682612f65565b602082019050919050565b60006020820190508181036000830152612fca81612f8e565b9050919050565b7f4552433732313a20617070726f766520746f2063616c6c657200000000000000600082015250565b6000613007601983612441565b915061301282612fd1565b602082019050919050565b6000602082019050818103600083015261303681612ffa565b9050919050565b7f4552433732313a207472616e7366657220746f206e6f6e20455243373231526560008201527f63656976657220696d706c656d656e7465720000000000000000000000000000602082015250565b6000613099603283612441565b91506130a48261303d565b604082019050919050565b600060208201905081810360008301526130c88161308c565b9050919050565b7f4552433732313a206d696e7420746f20746865207a65726f2061646472657373600082015250565b6000613105602083612441565b9150613110826130cf565b602082019050919050565b60006020820190508181036000830152613134816130f8565b9050919050565b7f4552433732313a20746f6b656e20616c7265616479206d696e74656400000000600082015250565b6000613171601c83612441565b915061317c8261313b565b602082019050919050565b600060208201905081810360008301526131a081613164565b9050919050565b7f45524337323155524953746f726167653a2055524920736574206f66206e6f6e60008201527f6578697374656e7420746f6b656e000000000000000000000000000000000000602082015250565b6000613203602e83612441565b915061320e826131a7565b604082019050919050565b60006020820190508181036000830152613232816131f6565b9050919050565b60008190508160005260206000209050919050565b60006020601f8301049050919050565b600082821b905092915050565b60006008830261329b7fffffffffffffffffffffffffffffffffffffffffffffffffffffffffffffffff8261325e565b6132a5868361325e565b95508019841693508086168417925050509392505050565b6000819050919050565b60006132e26132dd6132d8846124d7565b6132bd565b6124d7565b9050919050565b6000819050919050565b6132fc836132c7565b613310613308826132e9565b84845461326b565b825550505050565b600090565b613325613318565b6133308184846132f3565b505050565b5b818110156133545761334960008261331d565b600181019050613336565b5050565b601f8211156133995761336a81613239565b6133738461324e565b81016020851015613382578190505b61339661338e8561324e565b830182613335565b50505b505050565b600082821c905092915050565b60006133bc6000198460080261339e565b1980831691505092915050565b60006133d583836133ab565b9150826002028217905092915050565b6133ee82612436565b67ffffffffffffffff811115613407576134066122c2565b5b6134118254612a3a565b61341c828285613358565b600060209050601f83116001811461344f576000841561343d578287015190505b61344785826133c9565b8655506134af565b601f19841661345d86613239565b60005b8281101561348557848901518255600182019150602085019450602081019050613460565b868310156134a2578489015161349e601f8916826133ab565b8355505b6001600288020188555050505b505050505050565b7f4e6f7420656e6f75676820457468657220746f20726577617264207573657200600082015250565b60006134ed601f83612441565b91506134f8826134b7565b602082019050919050565b6000602082019050818103600083015261351c816134e0565b9050919050565b7f4e487b7100000000000000000000000000000000000000000000000000000000600052601160045260246000fd5b600061355d826124d7565b9150613568836124d7565b92508282019050808211156135805761357f613523565b5b92915050565b600081905092915050565b50565b60006135a1600083613586565b91506135ac82613591565b600082019050919050565b60006135c282613594565b9150819050919050565b7f4661696c656420746f2073656e64204574686572000000000000000000000000600082015250565b6000613602601483612441565b915061360d826135cc565b602082019050919050565b60006020820190508181036000830152613631816135f5565b9050919050565b600081519050919050565b600082825260208201905092915050565b600061365f82613638565b6136698185613643565b9350613679818560208601612452565b613682816122b1565b840191505092915050565b60006080820190506136a2600083018761256c565b6136af602083018661256c565b6136bc6040830185612762565b81810360608301526136ce8184613654565b905095945050505050565b6000815190506136e881612218565b92915050565b600060208284031215613704576137036121e2565b5b6000613712848285016136d9565b91505092915050565b7f4e487b7100000000000000000000000000000000000000000000000000000000600052601260045260246000fdfea264697066735822122098d51815ef2c6ba0891417cb0ec191124eba4523a05be23a5af6dd2328491e0964736f6c63430008130033",
  "immutableReferences": {},
  "source": "// SPDX-License-Identifier: MIT\npragma solidity ^0.8.17;\n\nimport \"@openzeppelin/contracts/token/ERC721/extensions/ERC721URIStorage.sol\";\nimport \"@openzeppelin/contracts/utils/Counters.sol\";\nimport \"@openzeppelin/contracts/access/Ownable.sol\";\n\ncontract MyNFT is ERC721URIStorage, Ownable {\n    using Counters for Counters.Counter;\n    Counters.Counter private _tokenIds;\n\n    // Mapping to track the rewards received by each user\n    mapping(address => uint256) private rewardsReceived;\n    // Mapping to track the NFTs minted by each user\n    mapping(address => uint256[]) private userMintedTokens;\n    // Mapping to check if a token has already been minted\n    mapping(string => bool) private tokenExists;\n\n    constructor() public ERC721(\"MyNFT\", \"NFT\") {}\n\n    function mintNFT(address recipient, string memory tokenURI)\n        public\n        returns (uint256)\n    {\n        require(!tokenExists[tokenURI], \"Token already exists\");\n\n        _tokenIds.increment();\n\n        uint256 newItemId = _tokenIds.current();\n        _mint(recipient, newItemId);\n        _setTokenURI(newItemId, tokenURI);\n\n        // Reward the user with 1 ETH.\n        rewardUser(recipient);\n\n        // Track the NFTs minted by the user\n        userMintedTokens[recipient].push(newItemId);\n\n        // Mark the token as minted\n        tokenExists[tokenURI] = true;\n\n        return newItemId;\n    }\n\n    function rewardUser(address user) internal {\n        uint256 rewardAmount = 1 ether;\n\n        require(address(this).balance >= rewardAmount, \"Not enough Ether to reward user\");\n\n        // Update the rewardsReceived mapping\n        rewardsReceived[user] += rewardAmount;\n\n        // Transfer the reward to the user.\n        (bool success, ) = payable(user).call{value: rewardAmount}(\"\");\n        require(success, \"Failed to send Ether\");\n\n        emit UserRewarded(user, rewardAmount);\n    }\n\n    // This function allows the contract owner to deposit ETH into the contract\n    function depositETH() public payable {}\n\n    // This function will allow the owner to withdraw all the remaining ETH.\n    function withdrawETH() public onlyOwner {\n        uint balance = address(this).balance;\n        payable(owner()).transfer(balance);\n    }\n\n    // Function to get the total amount of rewards an user received\n    function totalRewards(address user) public view returns (uint256) {\n        return rewardsReceived[user];\n    }\n\n    // Function to get all tokens minted by a user\n    function getMintedTokens(address user) public view returns (uint256[] memory) {\n        return userMintedTokens[user];\n    }\n\n    // Function to check if a token with a given URI already exists\n    function checkTokenExists(string memory tokenURI) public view returns (bool) {\n        return tokenExists[tokenURI];\n    }\n\n    // Event emitted when a user is rewarded\n    event UserRewarded(address indexed user, uint256 rewardAmount);\n}",
  "sourcePath": "/home/lam.nguyenduc92/workspace/nft-minting-tutorial/contracts/MyNFT.sol",
  "compiler": {
    "name": "solc",
    "version": "0.8.19+commit.7dd6d404.Emscripten.clang"
  },
  "schemaVersion": "3.4.13",
  "updatedAt": "2023-06-05T15:57:45.967Z",
  "networkType": "ethereum",
  "devdoc": {
    "events": {
      "Approval(address,address,uint256)": {
        "details": "Emitted when `owner` enables `approved` to manage the `tokenId` token."
      },
      "ApprovalForAll(address,address,bool)": {
        "details": "Emitted when `owner` enables or disables (`approved`) `operator` to manage all of its assets."
      },
      "BatchMetadataUpdate(uint256,uint256)": {
        "details": "This event emits when the metadata of a range of tokens is changed. So that the third-party platforms such as NFT market could timely update the images and related attributes of the NFTs."
      },
      "MetadataUpdate(uint256)": {
        "details": "This event emits when the metadata of a token is changed. So that the third-party platforms such as NFT market could timely update the images and related attributes of the NFT."
      },
      "Transfer(address,address,uint256)": {
        "details": "Emitted when `tokenId` token is transferred from `from` to `to`."
      }
    },
    "kind": "dev",
    "methods": {
      "approve(address,uint256)": {
        "details": "See {IERC721-approve}."
      },
      "balanceOf(address)": {
        "details": "See {IERC721-balanceOf}."
      },
      "getApproved(uint256)": {
        "details": "See {IERC721-getApproved}."
      },
      "isApprovedForAll(address,address)": {
        "details": "See {IERC721-isApprovedForAll}."
      },
      "name()": {
        "details": "See {IERC721Metadata-name}."
      },
      "owner()": {
        "details": "Returns the address of the current owner."
      },
      "ownerOf(uint256)": {
        "details": "See {IERC721-ownerOf}."
      },
      "renounceOwnership()": {
        "details": "Leaves the contract without owner. It will not be possible to call `onlyOwner` functions. Can only be called by the current owner. NOTE: Renouncing ownership will leave the contract without an owner, thereby disabling any functionality that is only available to the owner."
      },
      "safeTransferFrom(address,address,uint256)": {
        "details": "See {IERC721-safeTransferFrom}."
      },
      "safeTransferFrom(address,address,uint256,bytes)": {
        "details": "See {IERC721-safeTransferFrom}."
      },
      "setApprovalForAll(address,bool)": {
        "details": "See {IERC721-setApprovalForAll}."
      },
      "supportsInterface(bytes4)": {
        "details": "See {IERC165-supportsInterface}"
      },
      "symbol()": {
        "details": "See {IERC721Metadata-symbol}."
      },
      "tokenURI(uint256)": {
        "details": "See {IERC721Metadata-tokenURI}."
      },
      "transferFrom(address,address,uint256)": {
        "details": "See {IERC721-transferFrom}."
      },
      "transferOwnership(address)": {
        "details": "Transfers ownership of the contract to a new account (`newOwner`). Can only be called by the current owner."
      }
    },
    "version": 1
  },
  "userdoc": {
    "kind": "user",
    "methods": {},
    "version": 1
  }
}